:100000000C942A000C9447000C9447000C94470071
:100010000C9447000C9447000C9447000C94470044
:100020000C9447000C9447000C9447000C94470034
:100030000C9447000C9447000C9447000C94470024
:100040000C9447000C9447000C9447000C94470014
:100050000C94470011241FBECFE5D8E0DEBFCDBF12
:1000600011E0A0E6B0E0E2EFF2E002C005900D92F0
:10007000A030B107D9F721E0A0E0B1E001C01D92A6
:10008000A330B207E1F70E9444010C9477010C946D
:10009000000084EA86BF06B607FEFDCF089583B947
:1000A00084E886BF06B607FEFDCF0895CF93DF93A1
:1000B000C82FD62F0E9449008D2F0E944F008C2FF1
:1000C0000E944F0084E986BFDF91CF910895CF93BE
:1000D000C82F90910201892F8460809302016EE401
:1000E0000E94560085E88A95F1F70000C295C07F0E
:1000F000809102016EE48C2B0E94560080910201D7
:100100008B7F809302016EE40E94560085E88A95F9
:10011000F1F70000CF9108951F93CF93DF93182F2D
:10012000C82FD0E0D595C795D595C795D595C795D6
:10013000D595C795611109C0809102018E7F80938A
:1001400002016EE40E94560008C0809102018160A5
:10015000809302016EE40E9456008C2F0E9467007B
:10016000812F0E946700DF91CF911F910895CF9357
:10017000C82F809102018160809302016EE40E9489
:1001800056008C2F82958F700E9467008C2F0E94E2
:100190006700CF9108958FE295E70197F1F700C0CE
:1001A000000083E00E9467008FE39FE10197F1F771
:1001B00000C0000083E00E94670087EC90E0019798
:1001C000F1F700C0000083E00E9467008FEC97E029
:1001D0000197F1F700C0000082E00E9467008FECF9
:1001E00097E00197F1F700C0000060E088E20E940C
:1001F0008C008FEC97E00197F1F700C0000060E001
:100200008CE00E948C008FEC97E00197F1F700C022
:10021000000060E086E00E948C008FEC97E0019780
:10022000F1F700C000008091020188608093020114
:100230006EE40E945600809102018D7F809302013E
:100240006EE40E945600089560E081E00E948C00F8
:1002500087EB9BE00197F1F700C0000008951F9322
:10026000CF93DF93EC018881882351F010E00E9446
:10027000B7001F5FFE01E10FF11D80818111F7CFF3
:10028000DF91CF911F9108958FEF80B90E94CB002D
:100290008091000190910101059721F410920101D4
:1002A000109200018091000190910101880F991F27
:1002B00082959295907F9827807F9827805A9F4FAC
:1002C0000E942F012FEF89E698E121508040904055
:1002D000E1F700C0000080910001909101010196BA
:1002E00090930101809300010E942401D1CFF894E2
:0202F000FFCF3E
:1002F200556E69742031000000000000000000000B
:1003020000000000000000000000000000000000EB
:10031200556E6974203200000000000000000000E9
:1003220000000000000000000000000000000000CB
:10033200556E6974203300000000000000000000C8
:1003420000000000000000000000000000000000AB
:10035200556E6974203400000000000000000000A7
:10036200000000000000000000000000000000008B
:10037200556E697420350000000000000000000086
:10038200000000000000000000000000000000006B
:00000001FF
